:03000000020FDC10
:0C0FDC00787FE4F6D8FD75816F021023C9
:0F13B900572028525053293A0025302E31660014
:0E13C800020E0000040800000000020C0000ED
:100DD100752A00752B02752C00752D01D2AFD289B1
:100DE100D2A8E4F580E50D6401450C70F81211E913
:100DF1007FE87E0312130D1213D77531007532018E
:100E01001213A3120F048F258E248D238C22E4FB51
:100E1100FA79707842AF0BAE0AAD09AC0812021F25
:100E21008F298E288D278C267F9A7E997D997C3EED
:100E3100AB29AA28A927A8261202BC601F401DAF12
:100E410029AE28AD27AC267B9A7A99799978BE127A
:100E510000258F298E288D278C268009E4F529F518
:100E610028F527F526E4FFFE7DA07C41AB25AA24C9
:100E7100A923A8221202BC50057580FF8048E4FF17
:100E8100FE7DA07C41AB25AA24A923A8221202BC85
:100E9100601B4019E4FFFE7D8C7C42AB25AA24A98E
:100EA10023A8221202BC500575800F8019E4FFFEB1
:100EB1007D8C7C42AB25AA24A923A8221202BC6006
:100EC100054003E4F5807FC012132E7BFF7A13796E
:100ED100B912119B7FC912132E7545FF7546137503
:100EE10047C285294B85284A8527498526487B00A5
:100EF1007A00792E1208297B007A00792E12119B33
:030F0100020E04D9
:1012B90053697374656D6120696E69636961646FEF
:1012C9000025640025302E316600556D696461641E
:0912D900653A002500380C018083
:1011E90078337C007D007BFF7A1279DE7E007F04F4
:1011F90012062FE4F537F53874332538F8E6FF126F
:10120900132E0538E53870020537C39404E5379481
:0C1219000040E57BFF7A1279B902119BBE
:10132E008FA07F0A7E0012130DC2B77F0A7E0012B5
:10133E00130DD2B67F0A7E0012130DC2B67F0A7E3F
:04134E000002130D79
:06119B008B428A438944E7
:1011A1001200068E478F48E4F545F546C3E546959E
:1011B10048E5476480F8E545648098502AAB42AA27
:1011C10043A94485468285458312066EF5A0121314
:1011D10009D2B7121309D2B6121309C2B60546E5F0
:0711E1004670C9054580C5F9
:0111E80022E4
:041309007F057E00DE
:10130D00E4FDFCC3ED9FEC9E5016E4FBFA000BBB15
:10131D0000010AEB64414A70F40DBD00010C80E33D
:01132D00229D
:0513D7007F0102132E4E
:10128D007545FF7546127547CAEF2465F549EE346D
:10129D00FFF5487B007A0079101208297B007A004F
:0C12AD00791012119B7F057E0002130DCA
:0300030002135293
:10135200C0E0E50D450C7007F50C750D01800CE53C
:0E1362000D6401450C7004F50CF50DD0E03261
:10122500E4FE7D80EDD39400748094804019ED5FD9
:101235006004D2918002C29100D292000000C29255
:1012450000EDC313FD80DDD29100D292A291E4336B
:03125500C292FF43
:011258002273
:10125900E4FED2917D80EDD3940074809480401097
:10126900D292309103ED4206C292EDC313FD80E69E
:10127900EF24FFB3929100D292000000C29200D2F3
:0312890091AF061C
:01128C00223F
:10138A00D291C29200D29200C29100C29200000091
:09139A00D29200D29100C292220D
:10137000D291C292E4FFEFC3940974809480500725
:0A138000D292C2920F80EF02138A8E
:061068008B428A4389441B
:10106E00E4F54912138AE54814600704700E7F03F5
:10107E0080027F05121225EF2549F549900000AF39
:10108E0082AE83E4FCFD7BFF7AFFF9F8D31206EF04
:10109E004006309103A380E730910205497F01128B
:1010AE001259AB42AA43A944EF12069B7F011212BA
:1010BE0059AB42AA43A944900001EF1206ADE4FFDA
:0F10CE00121259AB45AA46A947EF12069BAF492C
:0110DD0022F0
:060C3C008B428A4389444B
:100C4200754BC5754AFE7549027548C0754FBD752D
:100C52004E52754D16754C3D7553F67552247551AD
:100C6200D67550B57557CD7556CC7555CC75543D66
:100C7200755BAC755AC57559A77558381207058F3B
:100C82005F8E5E8D5D8C5CAB45AA46A94712070557
:100C92008F638E628D618C607F0A7ED77D237C3C60
:100CA200AB63AA62A961A8601201167B667A6679B3
:100CB2002078C21200258F6F8E6E8D6D8C6CAF5FA7
:100CC200AE5EAD5DAC5CAB53AA52A951A850120105
:100CD20016AB5FAA5EA95DA85C120116C004C0052E
:100CE200C006C007AF5FAE5EAD5DAC5CAB4FAA4E57
:100CF200A94DA84C120116D003D002D001D0001287
:100D02000025AB4BAA4AA949A8481200258F678E35
:100D1200668D658C64AF5FAE5EAD5DAC5CAB5BAAAD
:100D22005AA959A858120116AB57AA56A955A85440
:100D3200120025C004C005C006C007E4FFFE7DC83E
:100D42007CC1AB6FAA6EA96DA86C120025D003D02E
:100D520002D001D000120116AB67AA66A965A86489
:100D62001200258F6B8E6A8D698C68E4FFFE7DC848
:100D72007C42AB6BAA6AA969A8681202BC600D40EA
:100D82000BE4F56BF56A7569C87568427FCD7ECC58
:100D92007DCC7C3DAB6BAA6AA969A8681202BC50E3
:100DA2000C756BCD756ACC7569CC75683DAF6FAE4D
:100DB2006EAD6DAC6CAB45AA46A947120725AF6B69
:0F0DC200AE6AAD69AC68AB42AA43A944020725EB
:100F040012137000000000E4F53BF54575460075CA
:100F1400473CF548FB7A007937121068EF253BF51A
:100F24003B75450075460075473C7548017B007A62
:100F3400007933121068EF253BF53B6011121370F2
:100F4400E4F536F5357534CA753343020FD3AC3343
:100F5400AD34E412033A8F368E358D348C33AC378E
:100F6400AD38E412033A8F3A8E398D388C37754593
:100F7400007546007547377B007A007933120C3CC4
:100F84007545FF7546127547CDAF36AE35AD34ACF9
:100F9400338F4B8E4A8D498C487B007A00793D1201
:100FA40008297F8012132E1213097BFF7A1279D33A
:100FB40012119B007F8812132E007545FF7546128F
:100FC4007547DC7B007A00793D12114312119BAF07
:070FD40036AE35AD34AC333D
:010FDB0022F3
:03001B000210DEF2
:1010DE00C0E0C0F0C083C082C0D075D000C000C0D8
:1010EE0001C002C003C004C005C006C007AF8A7E9F
:1010FE00007C007D141206CFAC06AD07EC12033A4D
:10110E008F0B8E0A8D098C08C28F758C00758A0024
:10111E00758D4B758BFFD28ED28CD007D006D00535
:10112E00D004D003D002D001D000D0D0D082D08352
:05113E00D0F0D0E0320A
:1013A30075A889758915E4F58CF58A758D4B758B50
:0613B300FFD28ED28C2255
:10001E000203A8E86480F8E933E83360110460F065
:10002E00ED33EC337009E8FCE9FDEAFEEBFF220448
:10003E0060DED3EB9FEA9EE99DE8C2E78CF0C2F743
:10004E0095F0400CE8CCF8E9CDF9EACEFAEBCFFB0F
:10005E0012037385D0F05804700320D5B3E80470F2
:10006E00075002B2D50203B292D5EC0460F7E4CC8D
:10007E00C0E0C398F8603B94186008400DD0E0FBD8
:10008E0002038AE4FBFAC9FC8028E830E406E4C9DE
:10009E00FBE4CAFCE830E305E4C9CACBFCE854072C
:1000AE006010F8C3E913F9EA13FAEB13FBEC13FC37
:1000BE00D8F130F52FC3E49CFCEF9BFFEE9AFEEDDA
:1000CE0099FDD0E0FBEF4E4D4C701222DB03020384
:1000DE00AFEC2CFCEF33FFEE33FEED33FDED30E7EE
:1000EE00EB02038AEF2BFFEE3AFEED39FDD0E0FB7B
:1000FE0050130BBB00030203B2ED13FDEE13FEEF24
:08010E0013FFEC13FC02038A4D
:10011600EC4D6011E8497017ED33EC3304600DE4E3
:10012600FCFFFEFD22E933E8330470F80203A8124F
:10013600037358046009E4CC248150062850090250
:1001460003B22840030203AFC0E0EB4A7044B98013
:1001560006D0E0FB02039EEF4E701CBD8008EBFF4D
:10016600EAFEE9FD80EBE98DF0A4FEE5F00201FF71
:10017600E9CDF9EAFEEBFFEF89F0A4FCE5F0CE89C4
:10018600F0A42EFFE435F0CD89F0A42DFEE435F081
:100196008067EF4E7005BD80D780C3EF8BF0A4ACAF
:1001A600F0EE8BF0A42CFCE435F0F8EF8AF0A42CEA
:1001B600E5F038FCE433CB8DF0A42CFCE5F03BF8FD
:1001C600EE8AF0A42CFCE5F038F8E433CF89F0A4ED
:1001D6002CFCE5F038CF3400CE89F0A42FFFE5F0F3
:1001E6003EFEE433C98DF0A42EFEE5F039CD8AF04B
:1001F600A42FFFE5F03EFEE43DFD33D0E0FB5007C3
:100206000BBB000F0203B2EC2CFCEF33FFEE33FE08
:06021600ED33FD02038A36
:10021C000203B2EC5D046005E8590470030203A804
:10022C00120373580460F6EC4860F2EC7004FDFEA7
:10023C00FF22C860DB2481C85009C39860025006B5
:10024C000203AF9850CAF582E9294B4A7005AB827C
:10025C0002039E75F0007C1A7880C3EF9BEE9AED3A
:10026C0099400DC3EF9BFFEE9AFEED99FDE842F02D
:10027C00DC23ACF0D0E0FFD0E0FED0E0FDAB822080
:10028C00E7101BEB60BAEC2CFCEF33FFEE33FEED0A
:10029C0033FD02038AE803F830E705C0F075F0007F
:1002AC00EF2FFFEE33FEED33FD40B830E7C280AAEE
:1002BC0074F8CC6480CCC86480C8F58204604FC3E9
:1002CC00EB9FF5F0EA9E42F0E99D42F0E89C45F088
:1002DC00603C501DE5825FFFE582D313CB5BCBF412
:1002EC002B5582FB50280ABA002409B9002008803B
:1002FC001DE5825BFBE582D313CF5FCFF4C3132FD5
:10030C005582FF50090EBE00050DBD00010CC3EB5C
:10031C009FF5F0EA9E42F0E99D42F0E89C45F060C2
:09032C0007CC4820E701B3EC22E4
:1003350075F020800E75F010800575F0087D007E43
:10034500007F003392D530D5031206E1EC3340101F
:10035500EF33FFEE33FEED33FDEC33FCD5F0ED224C
:0E036500E5F0247EA2D513CC92E7CDCEFF2288
:1007CD00E5592445F8E60559227842300702784567
:1007DD00E475F00112073F0206552000EB7F2ED283
:1007ED00008018EF540F2490D43440D4FF30040B04
:1007FD00EF24BFB41A0050032461FFE55A600215BF
:10080D005A055DE55D7002055C30070D7842E475B3
:10081D00F00112073FEF02069B0212E27403D207AA
:10082D008003E4C207F5598B428A438944E4F55AA3
:10083D00F55CF55DE55A60077F2012080880F575B7
:10084D005BFFC201C200C202C203C205C206C208DA
:10085D001207D6FF700D3007057F00120819AF5D26
:10086D00AE5C22B4255FC2D5C2041207D6FF24D0D8
:10087D00B40A00501A75F00A785A30D50508B6FF3B
:10088D000106C6A426F620D5047002D20380D92411
:10089D00CFB41A00EF5004C2E5D204020B06D20108
:1008AD0080C6D20080C0D20280BCD2D580BAD2051B
:1008BD0080B47F201208082002077401B55A004049
:1008CD00F11207CDFF120808020841D208D20680A6
:1008DD00951207CDFB1207CDFA1207CDF94A4B70D1
:1008ED000679FD7A0B7BFF20022EE55A602A7E00E9
:1008FD008E8275830012066E60060EEE655B70F0DB
:10090D00C2D5EBC0E0EAC0E0E9C0E0EE120B66D064
:10091D00E0F9D0E0FAD0E0FB120655FF60AAEBC07B
:10092D00E0EAC0E0E9C0E0120808D0E02401F9D007
:10093D00E03400FAD0E0FBE55B0460DCD55BD980E8
:10094D0087D20280A2120B4960F7E55B7001041299
:10095D0003BDA95B600DE55B600914F55B120BF03F
:10096D00EF60F3EA30E702F404C3995077EAF42517
:10097D005B0430E701E404F55B800D120B4960C1A7
:10098D00EA055B255B1203BDEA7858F630E701E412
:10099D00255B04D55B0420050114120B66E4C0E051
:1009AD00120BF07858E6601320E70714F61207F0E3
:1009BD00802204F6D0E014C0E07F001207F0E55B62
:1009CD0060071207E7155B800B3005031207E7D0B0
:1009DD00E0020841D0E00480C5120B4960A0E55B40
:1009ED00041203BD7858EAF6E55B200502600104A8
:0509FD002404120B664A
:100A020074FF04C0E0120BF01207F0E55B20050250
:100A120060031207E7D0E0B55BE87F451207FA787A
:100A220058E67F2B30E7047F2DF404C0E01208085B
:100A3200D0E075F00A84C0F01207F1D0E01207F19D
:100A4200020841791080027908C206C2088008D2E1
:100A5200D5790A8004790AC2D5E55B047002F55B98
:100A6200E4FAFDFEFF1207CDFC7B082001131207FA
:100A7200CDFD7B1030000A1207CDFE1207CDFF7BA1
:100A820020EC3382D592D55013C3E43000069FFF89
:100A9200E49EFEE42001039DFDE49CFCE4CBF8C24D
:100AA20001EC700CCFCECDCCE824F8F870F38017AF
:100AB200C3EF33FFEE33FEED33FDEC33FCEB33FBE0
:100AC200994002FB0FD8E9EB300105F8D0E0C448A9
:100AD200B201C0E00AEC4D4E4F78207B0070C2EAB2
:100AE200B55B0040BCC0E0120B68D0F0D0E0200142
:100AF20004C4C0E0C4B201C0F01207F1D0F0D5F0D6
:100B0200EB02084112074F08DE530A455808AF4C62
:100B120008AB420A494F0A51440A514908C4430AE0
:100B2200575509884609E6450952470C1D5008B336
:100B32002D08B72E08DA2B08BB2308D8200C062A6A
:100B4200087348000008D2E55BB4FF03755B061228
:100B520007CDFC1207CDFD1207CDFE1207CDFF789F
:100B6200510203EC790AA2D5200314300509B91009
:100B7200020404B9080104A2D5200602500104208F
:100B820002689202B55A005034C0E07F2030031947
:100B92007F30A20272067205500F120BBFC202C250
:100BA20006C205C2087F30800F300503E9C0E0129B
:100BB2000808300503D0E0F9D0E0B55ACC3005176B
:100BC2007F30B9100C1208087F583004077F7880F4
:100BD20003B908031208083002057F2D0208087FB6
:100BE200202008F87F2B2006F322920280CF7F007C
:100BF200B4070050052451F8E6FF22286E756C6C8C
:100C02002900D2011207CD3001F8C201785A30D53D
:100C12000108F60208732D504349581207CD2403E8
:100C2200B405004001E4900C18931207F9743A12CB
:0A0C320007F9D203755A04020A45BF
:10037300E9D2E7C933E833F892D5EDD2E7CD33ECD0
:0703830033FC5002B2D52249
:10038A00EC30E7100FBF000C0EBE00080DBD0004D4
:10039A000BEB6014A2D5EB13FCED92E7FD2274FF80
:1003AA00FCFDFEFF22E480F8A2D574FF13FC7D80D9
:0303BA00E480EFED
:1003BD00F920E72824F950037907E4F42402FB1807
:1003CD00DBFDE624FB5014E9600DE4F618E604F6B7
:0F03DD00B40A08E4F6D9F57401F60A22C2D52253
:1003EC00ED33EC3392D5FA602AB4FF33EDC2E77BE0
:1003FC00FF60067A047911E4227A04791A20D50474
:10040C007A047915224E614E002B494E46002D4937
:10041C004E4600E47A08F608DAFC7B00740722E802
:10042C00C0E0ECC0E0EDC0E0EEC0E0EFC0E0EA758B
:10043C00F010A4CAABF075F04DA42BFBE435F0FC26
:10044C00EA2410FAEB34C5FBEC34D9FCEDC2E7FF1F
:10045C0075F056A4F42411C5F0F434C58FF0A42A19
:10046C00E5F03BE43CF620E71412051FD0E0FFD08A
:10047C00E0FED0E0FDD0E0FC12021F8014F4041268
:10048C00051FD0E0FFD0E0FED0E0FDD0E0FC120173
:10049C0016D0E0F8E6FAEDD2E7CD33EC332482FB4C
:1004AC00E4C3CF33CFCE33CECD33CD33DBF37B07A9
:1004BC0075F00A846004F6081B0AE5F0F6088FF064
:1004CC00740AA4FFACF08EF0740AA42CFEACF050AD
:1004DC00010C8DF0740AA42CFDE435F0F608DBDE7B
:0304EC0074072270
:1004EF003F8000004120000042C80000447A000015
:1004FF00461C400047C35000497424004B18968097
:10050F004CBEBC205A0E1BCA6753C21C749DC5AE8D
:10051F00FB60065407601C232312054DEB54386013
:10052F0009120539120548120116ECF8EDF9EEFA29
:10053F00EFCB22EB12054880F1543803241C9004B2
:10054F00EFFE93FC0EEE93FD0EEE930ECE93FF2275
:100FE800020DD1E493A3F8E493A34003F68001F241
:100FF80008DFF48029E493A3F85407240CC8C3330A
:10100800C4540F4420C8834004F456800146F6DFD8
:10101800E4800B01020408102040809013C8E47E8D
:10102800019360BCA3FF543F30E509541FFEE493CD
:10103800A360010ECF54C025E060A840B8E493A394
:10104800FAE493A3F8E493A3C8C582C8CAC583CABF
:10105800F0A3C8C582C8CAC583CADFE9DEE780BE77
:0113D6000016
:10055F00E709F608DFFA8046E709F208DFFA803E7E
:10056F0088828C83E709F0A3DFFA8032E309F6086B
:10057F00DFFA8078E309F208DFFA807088828C83D3
:10058F00E309F0A3DFFA806489828A83E0A3F60887
:10059F00DFFA805889828A83E0A3F208DFFA804C61
:1005AF0080D280FA80C680D4806980F28033801038
:1005BF0080A680EA809A80A880DA80E280CA8033A1
:1005CF0089828A83ECFAE493A3C8C582C8CCC58319
:1005DF00CCF0A3C8C582C8CCC583CCDFE9DEE780E9
:1005EF000D89828A83E493A3F608DFF9ECFAA9F068
:1005FF00EDFB2289828A83ECFAE0A3C8C582C8CCBE
:10060F00C583CCF0A3C8C582C8CCC583CCDFEADED6
:10061F00E880DB89828A83E493A3F208DFF980CC38
:10062F0088F0EF60010E4E60C388F0ED2402B40431
:10063F000050B9F582EB2402B4040050AF232345D8
:06064F0082239005AF7349
:10065500BB010689828A83E0225002E722BBFE02A3
:09066500E32289828A83E49322D6
:10066E00BB010CE58229F582E5833AF583E0225041
:10067E0006E92582F8E622BBFE06E92582F8E2228B
:0D068E00E58229F582E5833AF583E49322A5
:10069B00BB010689828A83F0225002F722BBFE013E
:0206AB00F32238
:1006AD00F8BB010DE58229F582E5833AF583E8F083
:1006BD00225006E92582C8F622BBFE05E92582C82F
:0206CD00F22217
:1006CF00EF8DF0A4A8F0CF8CF0A428CE8DF0A42E3F
:0206DF00FE22F9
:0E06E100C3E49FFFE49EFEE49DFDE49CFC222A
:1006EF00EB9FF5F0EA9E42F0E99D42F0EC6480C882
:0606FF0064809845F02222
:10070500BB010789828A830207815005E9F8020740
:1007150075BBFE05E9F802078D89828A8302079970
:10072500BB010789828A830207B55005E9F80207EC
:0A073500A9BBFE05E9F80207C12286
:10073F00FAE6FB0808E6F925F0F618E6CA3AF622BB
:10074F00D083D082F8E4937012740193700DA3A339
:10075F0093F8740193F5828883E47374029368604D
:06076F00EFA3A3A380DF4D
:1012E200EFB40A07740D1212ED740A309811A8991E
:1012F200B8130CC2983098FDA899C298B811F6306C
:0713020099FDC299F5992243
:101143008B428A4389448B488A49894AAB42054486
:10115300E544AA437002054314F912065570ED7471
:10116300FF2544F54474FF3543F543AB450547E597
:1011730047AA467002054614F9120655FFAB42050D
:1011830044E544AA437002054314F9EF12069B7029
:08119300DAAB48AA49A94A227F
:10000600E4FFFE120655600C0FEF70010E09E97051
:05001600F20A80EF2258
:0C077500E6FC08E6FD08E6FE08E6FF22B0
:0C078100E0FCA3E0FDA3E0FEA3E0FF22EB
:0C078D00E2FC08E2FD08E2FE08E2FF22A8
:10079900E493FC740193FD740293FE740393FF22A6
:0C07A900ECF608EDF608EEF608EFF6227C
:0C07B500ECF0A3EDF0A3EEF0A3EFF022B7
:0C07C100ECF208EDF208EEF208EFF22274
:00000001FF
